:10000000F8FF002011040000E9280000E9280000A2
:10001000E9280000E9280000E9280000E92800009C
:10002000E9280000E9280000E9280000E92800008C
:10003000E9280000E9280000E9280000E92800007C
:10004000E9280000E9280000E9280000E92800006C
:10040000FFFFFFFFFFFFFFFFFFFFFFFFFEFFFFFFFD
:1004100062B605F05DFAFEE72DE9F04FA1B0824625
:10042000002017461D4602910B900DF1440B6FF012
:1004300000490AE017F8011B0298D04702900028F3
:1004400000F0A2820B98401C0B90387808B90B98EA
:100450009CE22528EED10020059006900790089098
:1004600009900A9001E040F0010017F8011F2029CF
:10047000F9D023290DD02B2904D02D2906D03029DD
:100480000AD00CE040F0020080B2EEE740F0040039
:10049000FAE740F00800F7E740F01000F4E72A29F7
:1004A0000ED12968296051F8042B2960002A0D9289
:1004B00004D5514240F004000D9180B27F1C11E040
:1004C00000210D9109E00D99494505D001EB81030B
:1004D00002EB430130390D917F1C3A78A2F13001D3
:1004E0000A29F0D339782E2903D04FF0FF310C912F
:1004F0001DE017F8011F2A2907D1296829607F1CF0
:1005000051F8042B29600C9211E000210C9109E0B4
:100510000C99494505D001EB810302EB43013039C9
:100520000C917F1C3A78A2F130010A29F0D3ADF882
:1005300038000FF6B820397800F076FD08B117F8CA
:10054000010B8DF83A009DF83A00682802BF39780F
:100550006829622005D06C2804BF38786C2803D144
:1005600071208DF83A007F1C11A8049017F8014BF8
:10057000B4F1250024D02038022840F2C580133879
:1005800000F0EB800B3800F04F81401E00F024811A
:10059000401E022840F2B880001F00F01D81401F5D
:1005A00000F08380401E00F0D880401E29D0C01E7D
:1005B0000CD0801E00F0D180C01E00F0CE803DE146
:1005C0000120059025208DF8440043E1286828602B
:1005D00050F8044B28600394DDF83080B8F1000F28
:1005E00004D5204600F02CFD804607E0424600215D
:1005F000204600F041FD08B1A0EB0408CDF81880BA
:1006000028E1296829604FF03C0851F8040B296063
:100610000021CDE9000111A80390DDE90001049C4F
:1006200011B908B90C9AC2B10206120FA0EB02125E
:100630003032D2B23A2AA8BF27320009A8F101030A
:1006400040EA017009091A5508BF0028984604D0ED
:10065000039A08EB04039A42E6D308EB04000390E4
:10066000C8F13C010C980691814209DA401A0890C1
:100670004FF6EF71BDF838000840ADF83800E9E0FA
:10068000002840F1E7809DF8380000F014001028A1
:1006900040F0E0800D98059A801A089A801A401A56
:1006A0000128C0F2D7800890D4E09DF83A00622873
:1006B0001AD0682806D06A280CD06C281CD0712863
:1006C00008D019E02868286050F8041B28600B98AF
:1006D0000880BFE02868286050F8042B28600B9839
:1006E000C117C2E90001B5E02868286050F8041B72
:1006F00028600B980870ADE02868286050F8041B4B
:1007000028600B980860A5E02868C01D20F007024B
:100710002A60D2E9000108322A60CDE900010029EF
:1007200003D5012005902D200CE0BDF8380081078D
:1007300003D5012005902B2004E0C00704D501203B
:10074000059020208DF84400059911A80818039001
:10075000214600A800F0D8F97CE09DF83A206C2AE8
:100760000DD0712A18BF6A2A09D12868C01D20F04F
:1007700007032B60D3E9000108332B6005E02968EB
:10078000296051F8040B29600021CDE90001682A95
:1007900008BF80B207D0622A08BFC0B203D0742A53
:1007A00018BF7A2A02D10021CDE900019DF8380056
:1007B000000730D5DDE90001002908BF00282AD054
:1007C00044F02000782826D130208DF844008BF8A2
:1007D0000140022005901EE09DF83A00294600F0F5
:1007E000D8F8CDE90001002904DA0598411C0591EB
:1007F0002D210EE0BDF83800810704D50598411C75
:1008000005912B2105E0C00705D50598411C0591F0
:10081000202100F80B10059911A808180390214613
:1008200000A800F0EDF815E0012005902868286088
:1008300050F8041B28608DF844100BE0012005904F
:100840002520002C8DF8440004D00598411C05910A
:1008500000F80B400D980599401A0899401A06991E
:10086000401A0999401A0799401A0A99A0EB010801
:100870009DF8380040070FD420208DF84000002458
:1008800008E0012310AA00A9504600F098FB0028B8
:100890007AD1641C4445F4DB059C11AE0AE016F8DD
:1008A000011B0298D047029000286DD00B98401C85
:1008B0000B90641E002CF2D130208DF840000026F1
:1008C000089C08E0012310AA00A9504600F077FB1D
:1008D000002859D1761CA642F4DB069C039E0AE050
:1008E00016F8011B0298D047029000284CD00B98B4
:1008F000401C0B90641E002CF2D130208DF840007B
:100900000026099C07E0012310AA00A9504600F028
:1009100056FBC8BB761CA642F5DB03980699079CDC
:100920000E1809E016F8011B0298D047029058B340
:100930000B98401C0B90641E002CF3D130208DF8D6
:10094000400000260A9C07E0012310AA00A9504697
:1009500000F035FBC0B9761CA642F5DB9DF83800E7
:1009600040077FF572AD20208DF84000002400E0A4
:10097000641C4445BFF669AD012310AA00A9504686
:1009800000F01DFB0028F3D04FF0FF3021B0BDE890
:10099000F08F622826D068281DD06A2808D06C28DD
:1009A00027D0712804D0742823D07A280CD020E0D6
:1009B0000868C01D20F007000860D0E90023083057
:1009C00008601946104670470A680A6052F8040B1E
:1009D0000A60002170470A680A6052F8040B0A6036
:1009E00000B20BE00A680A6052F8040B0A6040B2D9
:1009F00004E00A680A6052F8040B0A60C1177047E5
:100A00002DE9FA4E05460A462F696F2A08BF0824C9
:100A100005D041F02000782814BF0A2410243C2679
:100A2000D5E90001642A18BF692A81468A4605D1A2
:100A3000002903DAD9F100096AEB4A0ABAF1000F7A
:100A400008BFB9F1000F0CD1286B50B9082C36D172
:100A500095F83800000732D530203B2687F83B0058
:100A60002DE0E31748465146224600F031FBA4FB37
:100A70000023A9EB02023032D2B2A6F1010B3A2ACE
:100A80005E4603DB9DF80030513B9A1881465FEAD1
:100A9000010A0BF8072008BFB9F1000F03D0E8687E
:100AA000F1198842DDD3082C09D195F838000007E8
:100AB00005D5F05D302802D0761E3020F055C6F105
:100AC0003C00A861F119E960296B884208DA081A2C
:100AD00028624FF6EF71288F08402887BDE8F38E13
:100AE00000290ED595F8381001F01401102908D10D
:100AF000696B6A69891A2A6A891A081A0128A8BFC3
:100B00002862BDE8F38E00002DE9F34F8BB0D0E9E9
:100B10000089006B002801AF48BF062005D404BF40
:100B200041F02000672802D101200B99086340F2B0
:100B3000FF720B984168C1F30A50904220D108031C
:100B400002BF0B98006800280AD10B990320886126
:100B50009DF8300061381A2858D30FF2A44109E0FB
:100B60000B99032088619DF8300061381A284AD318
:100B70000FF284410B98C068032200F021FB00E1D2
:100B8000012807DA0B9800F056FB012802DB00234E
:100B90000026EDE00B9ADFF854B1526840F2FE31C6
:100BA00061F31E520B994A6040F2FE31461A4046EC
:100BB00049460022002300F05FFB38BF89F000495E
:100BC00036B247F297507043494990FBF1F636B27E
:100BD000C6F10707012F92461BDBF80707D55246DF
:100BE0005B464046494600F05FFB804689467F10E1
:100BF0005046594652465B4600F056FB002F82464F
:100C00008B46EAD126E00FF2EC31B3E70FF2EC317C
:100C1000B0E77F420024374D12E0F80707D552466F
:100C20005B462046294600F03FFB04460D467F10F8
:100C30005046594652465B4600F036FB82468B468C
:100C4000002FEAD14046494622462B4600F0FEFBE3
:100C5000804689469DF830000B99DFF89CB0096BFF
:100C600040F02005662D0CBF06F10A00062047184B
:100C7000142FA8BF132730208DF804000DF10504B0
:100C8000012F3BDB4046494600F004FD014604F1DC
:100C9000080204234FF00A0CB1FBFCFC0CEB8C04A3
:100CA000A1EB4401303102F8011D0A21BCFBF1FE29
:100CB0000EEB8E04ACEB440430345B1E714602F83C
:100CC000014DE7D1083F012F02F10804D8DB00F005
:100CD000F7FC02460B464046494600F0FFFC002266
:100CE0005B4600F0E1FA80468946CBE700002440ED
:100CF000A08601000000F03F84D797410DF1050068
:100D0000201A0DF1050702E0401E761E7F1C39787F
:100D10003029F9D0662D02D136B2711C03E0652D61
:100D20000CBF012100210B9A126B8B181BB2984249
:100D3000B8BF03461BB219001AD4814204DAC85D59
:100D40003528A8BF392000DA3020CA19521E00E029
:100D50005B1E12F80159491E8542F9D0392802D18B
:100D6000C85D401CC855002902D57F1E5B1C761C3F
:100D700036B29DF830100B9800961BB23A4600F040
:100D800003F80DB0BDE8F08F2DE9F04786B00646B8
:100D90008A4690461D4600F07EFD406A376B90F80B
:100DA0000090012D02DA01250FF258284AF02000A8
:100DB000BDF93840662808BF641C13D0672840F08E
:100DC000888014F1040F73DBBC4271DA96F83800A6
:100DD000641C000702D4BD42B8BF2F4624B23F1B9B
:100DE00048BF002724B2F068B169012C21DA4A1CFF
:100DF00030230B54012F03DA96F83810090702D577
:100E000002F80090521CE742B8BF7C4224B2614213
:100E1000E719AF42B261B8BF3D4671622DB2F561CC
:100E20002A46B3694146181800F0CAF9781BB06227
:100E3000AEE00818A54216DA2A46414600F0C0F98D
:100E4000B1696918601BB161012F706203DA96F80D
:100E50003800000705D5F06801F80090F069401CE3
:100E6000F061B76294E02246414600F0A9F9B0690A
:100E700020182D1B012F03DA96F83810090703D527
:100E8000F16800F80190401CB0612DB2AF42B8BFCC
:100E90003D46F068B3692DB22A4604EB08011818E4
:100EA00000F08EF9B0692818B061781B70626FE0AD
:100EB000BD4204DA96F83810090758BF2F467F1E46
:100EC00048BF0027BAF1670F0CBF4FF0650A4FF01B
:100ED000450AB169F06818F8013B0B544A1C012F10
:100EE00005DA96F83810090758BFB26115D502F82F
:100EF0000090531C012FB3610FDB6D1E2DB2AF426A
:100F0000B8BF3D462DB22A464146181800F058F9A0
:100F1000B0692818B061781B7062F068B16901EBA4
:100F20000008200008F801AB03D42B2008F8010BBF
:100F300003E02D2108F8011B6442002502AF08E000
:100F40000A2200A800F0C0FC019807F8010B6D1CF4
:100F5000009C21B20129F3DA022D06DA4AF02000C2
:100F6000652804BF302008F8010B4DB9302008F87F
:100F7000010B07E06D1E02A8285C303008F8010B59
:100F8000012DF7DAF068B1690818A8EB0000F061EC
:100F900096F8380000F0140010280DD17069B1697E
:100FA0000818716A0818F1690818B16A0818716B95
:100FB0008842BCBF081A306206B0BDE8F087F8B5B9
:100FC00004460D4616461F46002004E0E86A401C11
:100FD000E8627F1E002047B116F8011BA868A047F1
:100FE000A8600028F2D14FF0FF30F2BD686A6C743F
:100FF0007A4C00006E616E004E414E00696E6600D4
:10100000494E4600300050F8041B61B150F8042BE3
:10101000D30744BFA9F101039A180023091F42F81E
:10102000043BFAD1EFE770470278C9B28A421AB19D
:101030001CBF10F8012FF9E718BF0020704700000F
:1010400000F10103810704D010F8011B89B1810769
:10105000FAD10268B2F10131914311F0803F04BF2F
:1010600050F8042FF6E710F8011B11B110F8011B1E
:10107000FBE7C01A70470000C9B2830706D0521EB2
:1010800022D310F8013B9942F7D11FE0083A13D35D
:1010900002F1040241EA012141EA014150F8043B16
:1010A000121F21BF4B40A3F1013C2CEA030C1CF0A2
:1010B000803FF3D0C9B2001F083210F8013B521E26
:1010C00028BF91EA030FF8D818BF0120401E7047CF
:1010D0001B4213D1094236D12AB18446B0FBF2F04B
:1010E00002FB10C2704700F0F7BBFCD300220023C4
:1010F00070470B000200002100207047904271EB06
:10110000030CF6D370B5B1FA81F4B3FA83F52C1B56
:10111000A340C4F1200532FA05F63343A2405FF044
:101120000046E64002E05B085FEA3202841A71EB97
:10113000030524BF204629467641F4D302000B0064
:101140003000002170BD012ACFD970B5140C20D019
:10115000B1FA81F4B2FA82F5C4F120046419B4F151
:101160002006D6D3B2405FF00044F440002502E0F0
:1011700052085FEA3303C61A71EB020E24BF3046F1
:10118000714664416D41F3D302000B002000290039
:1011900070BD0C46B1FBF2F102FB11452D0445EA8E
:1011A0001045B5FBF2F402FB145580B240EA054548
:1011B000B5FBF2F002FB105240EA044070BD0000A3
:1011C00062B38B0708D0521E11F8013B00F8013BB7
:1011D00000F024808B07F6D1830740F0208000BF09
:1011E000103A07D330B4B1E83810103AA0E83810FC
:1011F000F9D230BC530724BFB1E80810A0E80810AA
:1012000044BF51F8043B40F8043BD20724BF31F8F7
:10121000022B20F8022B44BF0B7803707047083A6A
:1012200007D3B1E80810083A40F8043B40F804CB73
:10123000F7D25307E4E730B4436803F000420121DA
:101240001B031B0B436004BF0368002B08D10DE098
:101250000368DD0F45EA440444605B000360491EF7
:101260004468E302F4D523031B0B436043681A432D
:101270004260084630BC70474FF4001C1CEB410F25
:1012800094BF1CEB430F09E041EA030C50EA4C0CFD
:1012900052EA0C0C03D2994208BF9042704714BF27
:1012A0008B42824270470000B0B581EA030C0CF01B
:1012B000004C40F2FF7515EA11541DBF15EA135793
:1012C000AC42AF4239E0E41923EA455343F48013BA
:1012D000C90241F0004141EA505EC7021100A7FB7C
:1012E000020200284FF00000EEFB01204FF0000149
:1012F000E3FB072118BF42F00102401800214941D9
:10130000E3FB0E01A4F580640F0302D252004041BA
:10131000494154F101046CDD470872F1004250F17B
:10132000000051EB0451A1F580115CBF41EA0C01B2
:10133000B0BD4CEA05510020B0BD05EA1357AC42E0
:1013400014BFAF4241E050EA410E1CBF52EA430EC7
:1013500002E061460020B0BD24423C441BD15FEA5C
:10136000070EF6D0090302BF01460020AEF1140EAD
:10137000B1FA81F7AEEB070401FA07FE0C37C7F1AB
:10138000200100FA07F7C8404EEA000E23EA455351
:1013900043F48013A2E733F00043B3FA83F704BFAA
:1013A000B2FA82FE77440B3FE41BB7F1200E2FBF49
:1013B00002FA0EF3BB40C7F1200E22FA0EFE38BF30
:1013C00043EA0E03BA40641C82E750EA410E14BFA0
:1013D00052EA430E6FF000014FF4001717EB430F72
:1013E0008ABF194617EB410FB5E74CEA05510020BB
:1013F000B0BDD4F10104B4F120070FDAC4F1200725
:10140000520828BF42F0010210FA07F501FA07F767
:10141000E1BF2A43E0403843E1400FE0352C98DC3F
:10142000C7F1200452EA400220FA07F218BF42F046
:10143000010231FA07F0A1400A43002172F1004293
:1014400050F1000051EB0C01B0BD0000F0B540F2CE
:10145000FF7581EA030C0CF0004C15EA11541DBF16
:1014600015EA1357AC42AF42E5E0BC41C1F31301AA
:10147000C3F31303801A994143F4801304D2641E0A
:101480004000494180185941C90241EA5051B1FB1D
:10149000F3F603FB1611A2FB0675D7EBC020A9419A
:1014A00002D2761E80185941C90241EA5051B1FB5F
:1014B000F3FE03FB1E11A2FB0E75D7EBC020A94162
:1014C00003D2AEF1010E80185941890241EA9051D0
:1014D000760546EA8E2EB1FBF3F603FB1611A2FB4E
:1014E0000675D7EB8020A94102D2761E801859419B
:1014F000C90241EA50514EEA060EB1FBF3F603FB76
:101500001611A2FB0675D7EBC020A94102D2761EA8
:1015100080185941C90241EA5051B1FBF3F703FB6E
:101520001711A2FB0735D3EBC020A94167F10007D3
:101530000CBF004247F0010766F3D5274FEA1E3182
:10154000B80814F5806412DDBD0775F1004250EB58
:101550000E5051EB045111F5801F5CBF41EA0C01A4
:10156000F0BD4CF07F6141F0E0410020F0BDBD07CF
:101570006D0840EA0E5041F48011D4F10104B4F139
:1015800020060ADAC4F120060200E04001FA06F360
:10159000E1401843B24015430EE0342C13DCC6F191
:1015A000200445EA40056D0820FA06F2154321FAA9
:1015B00006F0A1400D43002175F1004250F10000FA
:1015C00051EB0C01F0BD00205FEA0C01F0BDCFB97A
:1015D00092185B41B3FA83F704BFB2FA82F6BF19DF
:1015E0000B3FB7F120062FBF02FA06F3BB40C7F14D
:1015F000200622FA06F638BF3343BA401CB1E4197C
:10160000641E33E77F4231F00041B1FA81F404BF38
:10161000B0FA80F6A4190B3CB4F120062FBF00FAF3
:1016200006F1A140C4F1200620FA06F638BF314386
:10163000A0403C1B1AE7AC421ABF05EA1357AF4261
:1016400012E050EA41061CBF52EA4306BFE750EAE7
:101650004107304661461CBF41EA0551F0BD52EAE0
:10166000430C08BFC143F0BD00204FF4001616EB39
:10167000410F98BF16EB430F08BF16EB410F24BF75
:10168000C14305E016EB430F0CBF61464CEA055120
:10169000F0BD0000400D40EAC120490080F00D80FF
:1016A00040F00040490DA1F58061491C05D4D1F1FD
:1016B0001F0154BFC840C01770474FF0000070476B
:1016C000010000BF09D0B0FA80F18840C91CC1F503
:1016D0008461090501EBD0214005704770B44FF0DB
:1016E000004591EA030F44BF6B4000F001B900BF11
:1016F000841A71EB030604D26E40001BB14112192B
:1017000073414FF4001C1CEB410F34BF7CEB4306CC
:1017100084E00C0DA4EB1356362E7DDC012E43DC49
:1017200045EAC32343EA525312BFD20292025B0836
:10173000240545EAC12141EA5051D2EBC02099412C
:1017400025D407D1B0FA80F610FA06F164D0002053
:10175000203608E0B1FA81F6B140C6F1200220FA45
:1017600002F21143B0404FEAF474B4EB465434F043
:1017700001064FEA74040AD8D6F50016760D04F077
:101780000044F04061FA06F25040F1404840C00A7F
:1017900040EA415021F0004128BF5FEA500550F176
:1017A000000044EBD12137E045EAC323DB0A45EAD8
:1017B000C121C90AB6F120050EDD42EA0242120C2F
:1017C000C5F1200603FA06F6EB4042EA06056D4233
:1017D000984161F100010DE062FA06F5F2405540D2
:1017E00063FA06FC82EA0C02F3405A406D429041D3
:1017F00061EB030111F4801F05D1641E620502D064
:101800006D004041494121F48011430875F10043C6
:1018100050F1000041EB045170BC70471CEB410FCC
:1018200015D223F0004352EA43060BD04FEA4C0C8A
:10183000BCEB410F04D80C0D661E342EB7DDEBE770
:10184000801A994150EA410608BF0021E4E708BF29
:101850001CEB430F28BF6FF00001DDE780B5134894
:1018600000F0B0F80FF24801016041608160C16092
:101870000161416181610FF23C0242628162C16299
:10188000016341630FF2300282630FF23402C263DC
:101890000164416401BD10B5044800F093F80446AA
:1018A000206808B9FFF7DAFF204610BDF80EFF1FC9
:1018B000000000002E00000066616C7365000000EF
:1018C000747275650000000091FBF2F303FB1211C6
:1018D000C0E90031704700007047000070B44FF05D
:1018E000004591EA030C44BF6B40FFF701BF00BF06
:1018F000841A71EB030603D2001BB1411219734124
:101900004FF4001C1CEB410F34BF7CEB430443E05D
:101910000C0DA4EB1356352E50DC45EAC323DB0A2D
:1019200045EAC121C912B6F120050DDD63FA05F6BD
:10193000EB4086EA0305124218BF45F00105C018C6
:1019400051F100010CD213E062FA06F5F240554065
:10195000F3415A40B340F3405A408018594107D3ED
:1019600049085FEA30005FEA350528BF45F0010508
:1019700001F58011420875F1004250F1000041EB81
:10198000045170BC4FF4001C1CEB410F38BF704772
:101990000020090D090570471CEB410F10D252EAD7
:1019A00043060BD0BCEB410F05D80C0DAB43661EB4
:1019B000342EB5DD02E0AB438018594170BC70474E
:1019C00070BC70477047000000B0034000B00B408F
:1019D000A0000000CA080000CA080000F4010F00BF
:1019E000F40100001400140014001400140014008A
:1019F00014001400140014006600660066006600FF
:101A000066006600660066006600660040004000F2
:101A100040004000400040004000400040004000C6
:101A20000104000000F00F4040F00F4080F00F4034
:101A3000C0F00F4000F10F40000000400200000025
:101A40000000000000000000000000000000000096
:101A500000000000000000000000000000004E6FC9
:101A60006E4D61736B61626C6500000000486172CD
:101A7000644661756C740000000000004D656D4D9A
:101A8000616E6167656D656E7400004275734661D5
:101A9000756C7400000000000000557361676546B6
:101AA00061756C7400000000000000000000000080
:101AB0000000000000000000000000000000000026
:101AC0000000000000000000000000000000000016
:101AD0000000000000000000000000000000000006
:101AE0000000000000535643616C6C0000000000D1
:101AF0000000000044656275674D6F6E69746F7217
:101B000000000000000000000000000000000000D5
:101B1000000050656E645356000000000000000095
:101B2000005379735469636B0000000000000000EB
:101B3000444D41300000000000000000000000445F
:101B40004D41310000000000000000000000444D45
:101B500041320000000000000000000000444D4140
:101B6000330000000000000000000000444D41343C
:101B70000000000000000000000000444D4135005E
:101B800000000000000000000000444D413600004D
:101B9000000000000000000000444D41370000003C
:101BA0000000000000000000444D4138000000002B
:101BB00000000000000000444D413900000000001A
:101BC000000000000000444D4131300000000000E2
:101BD0000000000000444D413131000000000000D1
:101BE00000000000444D41313200000000000000C0
:101BF000000000444D4131330000000000000000AF
:101C00000000444D4131340000000000000000009D
:101C100000444D413135000000000000000000008C
:101C2000444D415F4572726F720000000000004D2C
:101C3000434D00000000000000000000000046547A
:101C4000464C0000000000000000000000526561EA
:101C5000645F436F6C6C6973696F6E004C56445FD0
:101C60004C565700000000000000004C4C5700008C
:101C70000000000000000000000057617463686409
:101C80006F6700000000000000524E470000000097
:101C90000000000000000000493243300000000056
:101CA0000000000000000049324331000000000045
:101CB0000000000000005350493000000000000008
:101CC00000000000005350493100000000000000F7
:101CD00000000000535049320000000000000000E6
:101CE00000000043414E305F4F525F4D425F6275CE
:101CF000660043414E305F4275735F4F6666000079
:101D00000043414E305F4572726F72000000000068
:101D100043414E305F54785F5761726E696E67431E
:101D2000414E305F52785F5761726E696E67434112
:101D30004E305F57616B655F5570000000526573F0
:101D40006572766564353100000000005265736588
:101D5000727665643532000000000043414E315F09
:101D60004F525F4D425F6275660043414E315F42A4
:101D700075735F4F666600000043414E315F4572E8
:101D8000726F72000000000043414E315F54785F73
:101D90005761726E696E6743414E315F52785F578B
:101DA00061726E696E6743414E315F57616B655F6B
:101DB00055700000005265736572766564353900B0
:101DC000000000005265736572766564363000006D
:101DD00000000055415254305F52585F5458000083
:101DE000000055415254305F45525200000000003F
:101DF0000055415254315F52585F54580000000062
:101E000055415254315F45525200000000000055C8
:101E1000415254325F52585F5458000000005541FF
:101E20005254325F455252000000000000554152AA
:101E300054335F52585F54580000000055415254CB
:101E4000335F4552520000000000005541525434A7
:101E50005F52585F54580000000055415254345F9F
:101E600045525200000000000055415254355F5267
:101E7000585F54580000000055415254355F455298
:101E80005200000000000041444330000000000008
:101E90000000000000004144433100000000000049
:101EA0000000000000434D50300000000000000022
:101EB00000000000434D5031000000000000000011
:101EC000000000434D503200000000000000000000
:101ED000000046544D3000000000000000000000EB
:101EE0000046544D310000000000000000000000DA
:101EF00046544D3200000000000000000000004386
:101F00004D5400000000000000000000000052548A
:101F10004300000000000000000000000052657354
:101F20006572766564383300000000005049543013
:101F30000000000000000000000000504954310083
:101F40000000000000000000000050495432000072
:101F50000000000000000000005049543300000061
:101F6000000000000000000050444230000000006B
:101F70000000000000000055534230000000000047
:101F8000000000000000555342444344000000009C
:101F90000000000000454E45545F313538385F542D
:101FA000696D6572454E45545F5472616E736D691B
:101FB000740000454E45545F52656365697665005F
:101FC0000000454E45545F4572726F72000000007C
:101FD0000049325330000000000000000000000003
:101FE000534448430000000000000000000000448B
:101FF00041433000000000000000000000004441A8
:10200000433100000000000000000000005453496C
:102010003000000000000000000000004D434700B9
:1020200000000000000000000000004C5054696DEA
:102030006572000000000000000052657365727652
:10204000656431303200000000504F5254410000AE
:102050000000000000000000504F525442000000F9
:1020600000000000000000504F52544300000000E8
:10207000000000000000504F5254440000000000D7
:102080000000000000504F525445000000000000C6
:102090000000000052657365727665643130380067
:1020A0000000005265736572766564313039000056
:1020B000000052657365727665643131300000004E
:1020C000005265736572766564313131000000003D
:1020D00052657365727665643131320000000052DA
:1020E00065736572766564313133000000005265B6
:1020F0007365727665643131340000000052657397
:102100006572766564313135000000005265736593
:102110007276656431313600000000526573657275
:102120007665643131370000000052657365727660
:102130006564313138000000005265736572766560
:1021400064313139000000000080034000900340FA
:1021500000800B4000F00F4040F00F4080F00F4037
:10216000C0F00F4000F10F40F0000A1D30001800D1
:1021700032001801600018186400181A6E00181F49
:10218000780013187D00131A8200131C8C000E12A5
:1021900096000E15A0000E18AA000E1BB4000E1E0D
:1021A000C8000C1CE1000B1EFA000A1F0001090800
:1021B0000090044000A0044000B0044000C004406F
:1021C00000D0044000C0024000D0024000C00A40DD
:1021D00000A0064000B0064000C0064000D0064007
:1021E00000A00E4000B00E4069686B6C676D4E4FEA
:1021F0001835363702040101800EFF1FD00EFF1F75
:10220000800EFF1F800EFF1F800EFF1F790CFF1F27
:10221000600CFF1F00000000000000000000000034
:1022200000000000000000000000000000000000AE
:10223000000000002DE9FC4F95B004000D00DFF810
:10224000900500684FF47A7148431699B0FBF1F895
:1022500004A8DFF880154022FEF7C2FF01A8DFF8CE
:1022600078150A6802605FF0000A5FF0FF3B64B215
:10227000002C41D1DFF86405006850F48050DFF88D
:102280005C1508604FF400710F2000F0B3FA4FF4B2
:102290000071102000F0AEFA4FF40071112000F030
:1022A000A9FAE80704D54FF400710E2000F0A2FA55
:1022B000A80704D54FF40071432000F09BFA68078B
:1022C00004D54FF40071422000F094FA280704D599
:1022D0004FF40071412000F08DFAE80604D54FF468
:1022E0000071402000F086FAA8066AD54FF44071CC
:1022F000372000F07FFA64E064B2012C33D1DFF8BC
:10230000DC04006850F40050DFF8D01408604FF48B
:1023100000712B2000F06EFA4FF40071302000F0B5
:1023200069FA4FF40071312000F064FAE80704D52F
:102330004FF400712A2000F05DFAA80704D54FF48D
:102340000071802000F056FA680704D54FF4007140
:10235000852000F04FFA280733D54FF4007186200E
:1023600000F048FA2DE064B2022C25D1DFF87004A9
:10237000006850F48050DFF8681408604FF4007172
:10238000352000F037FA4FF40071362000F032FAB1
:102390004FF40071372000F02DFAE80704D54FF410
:1023A0000071342000F026FAA8070AD54FF4007116
:1023B0006F2000F01FFA04E07821DFF8280400F015
:1023C00071FA40F60140DFF8201464B251F824108D
:1023D0000860DFF81804DFF8101464B251F8241014
:1023E000C8629DF9540000284CD1DFF80404DFF8DE
:1023F000F81364B251F82410086000200600F6B209
:10240000102E21DA00200700FFB2042F1ADA04A8E8
:10241000F6B250F8260001A9FFB2795C4843029059
:102420000298B0EB080000F087FA8146D94507D240
:10243000CB46F6B2B246FFB20097BBF1000F03D015
:102440007F1CE1E7761CDAE7E14800684FF47A7117
:10245000484304A951F82A1001AA009B9A5C5143F1
:10246000B0FBF1F003900098000410F440301AF033
:102470000F01084350F06050DB4964B251F824105A
:10248000C86006E05FF07850D74964B251F8241074
:10249000C860D54864B250F8240000684008400085
:1024A000D14964B251F824100860039817B0BDE810
:1024B000F08FF0B4049C0025CC4ECB4F40B257F8BF
:1024C0002070FE62C84E40B256F82060366856F45E
:1024D0004066C54F40B257F820703E60C24E40B2D1
:1024E00056F82060F66AB603E6D400263500661E6C
:1024F000B5422FD249B20E0416F47C16AF5C3E43AF
:1025000056F00046B84F40B257F820707E63B64E82
:1025100040B256F82060F66AB603F8D5002B06D014
:10252000B14E40B256F82060B66BEE5404E0AE4EA9
:1025300040B256F82060B66BAB4E40B256F8206001
:10254000F66A56F40036A84F40B257F82070FE6283
:102550006D1CCCE749B20E0416F47C16AF5C3E430A
:1025600056F00066A04F40B257F820707E639E4E32
:1025700040B256F82060F66AF600F8D59A4E40B29E
:1025800056F82060F66AB603F8D5002B06D0964EB2
:1025900040B256F82060B66BEE5404E0924E40B262
:1025A00056F82060B66B904E40B256F82060F66A3E
:1025B00056F400368C4F40B257F82070FE62F0BCE3
:1025C00070472DE9F041069C079D089E099F5FF02A
:1025D000000CDFF818E2DFF8108240B258F82080D3
:1025E000C8F82CE0DFF800E240B25EF820E0DEF848
:1025F00000E05EF4406EDFF8F08140B258F82080D1
:10260000C8F800E0DFF8E0E140B25EF820E0DEF874
:102610002CE05FEA8E3EDCD45FF0000EF446B44559
:1026200041D249B25FEA014E1EF47C1E1CF80280C2
:1026300058EA0E0E5EF0004EDFF8AC8140B258F85A
:102640002080C8F834E0DFF8A0E140B25EF820E076
:10265000DEF82CE05FEA8E3EF5D5002B09D0DFF8DE
:1026600088E140B25EF820E0DEF838E00CF803E0E4
:1026700006E0DFF874E140B25EF820E0DEF838E012
:10268000DFF864E140B25EF820E0DEF82CE05EF4B2
:10269000003EDFF8548140B258F82080C8F82CE0A2
:1026A0001CF1010CBBE75FF0000EF446B7F1010E20
:1026B000F44541D249B25FEA014E1EF47C1E1CF87B
:1026C000048058EA0E0E5EF0004EDFF81C8140B226
:1026D00058F82080C8F834E0DFF80CE140B25EF82A
:1026E00020E0DEF82CE05FEA8E3EF5D5002D09D023
:1026F000DFF8F4E040B25EF820E0DEF838E00CF8F5
:1027000005E006E0DFF8E0E040B25EF820E0DEF849
:1027100038E0DFF8D4E040B25EF820E0DEF82CE0EC
:102720005EF4003EDFF8C08040B258F82080C8F860
:102730002CE01CF1010CB9E749B25FEA014E1EF42E
:102740007C1E1CF8048058EA0E0E5EF0006EDFF866
:10275000988040B258F82080C8F834E0DFF888E06C
:1027600040B25EF820E0DEF82CE05FEACE0EF5D550
:10277000DFF874E040B25EF820E0DEF82CE05FEABB
:102780008E3EF5D5002D09D0DFF85CE040B25EF852
:1027900020E0DEF838E00CF805E006E0DFF848E07D
:1027A00040B25EF820E0DEF838E0DFF83CE040B20E
:1027B0005EF820E0DEF82CE05EF4003EDFF82880D2
:1027C00040B258F82080C8F82CE0BDE8F081000045
:1027D0007C0EFF1F105D0000106000003C80044074
:1027E000308004404C5E00000C0CFF1F00000A1AF1
:1027F00000003F8010B4294A12684FF40073C0B241
:102800004409A3401A43254B1A60254AC0B243111C
:1028100052F82320012310F01F04A340C2F8A03077
:102820001F4AC0B2431152F82320C0B210F01F0358
:1028300042F8231010BC704710B4184A12684FF4C5
:102840000073C0B24409A3401A43144B1A60144ADF
:10285000C0B2431152F82320012310F01F04A340FB
:10286000C2F8A03031F4E0610D4AC0B2431152F811
:102870002320C0B210F01F0352F8232012F4E062AC
:102880001143074AC0B2431152F82320C0B210F0DE
:102890001F0342F8231010BC70470000388004402A
:1028A000F80BFF1F38B504000D00002000F048F8B9
:1028B0002A0021001B4800F06BF8002000F05DF8B2
:1028C000194800684FF47A7101FB00F1032000F011
:1028D000A7F8EDE738B504000D00210049B2032048
:1028E00000F005FA200032BD10B510480468012040
:1028F00000F026F8012000F040F80D48E4B20F2166
:1029000001FB0402E4B221000A4800F041F8064845
:1029100000684FF47A7101FB00F1032000F080F8A9
:10292000E8E70000285F00007C0EFF1F04ED00E0D8
:102930008804FF1F505D0000002848BF40427047D8
:1029400010B5040064B2042C07DA012201210F48FB
:1029500064B2205C00F0F6F90EE0042004002000D0
:10296000441E40B2002807D001220121074864B26A
:10297000205C00F0E7F9F2E710BD10B50400034851
:1029800064B2205C00F06FFA10BD0000380CFF1F2D
:102990000EB400B582B003A90091024600AB01213C
:1029A000034878440A30FDF737FD06BC5DF810FB9C
:1029B000E935000038B504000D00002D03D12421B5
:1029C0004348FFF76FFF4348006850F40000414957
:1029D0000860002040490860681E404964B2220136
:1029E00050503E4864B210EB0410C06850F0010033
:1029F0003A4964B211EB0411C860384864B210EB74
:102A00000410806840084000344964B211EB04119E
:102A100088600320314964B211EB0411886031BD34
:102A200038B504000D00002D03D147212848FFF7D9
:102A300039FF2848006850F40000264908602648FD
:102A400000688008800024490860244864B210EBC4
:102A50000410806840084000204964B211EB041162
:102A60008860681E1D4964B2220150501B4864B240
:102A700010EB0410C06850F00100184964B211EB6B
:102A80000411C860154864B210EB04108068400857
:102A90004000124964B211EB0411886001200F4913
:102AA00064B211EB041188600C4864B210EB04109E
:102AB000C068C007F8D5094864B210EB0410C068BC
:102AC00050F00100054964B211EB0411C86031BD3A
:102AD0001C5E00003C800440007003400071034015
:102AE0002DE9F84304000D0064B2002C08D0022C3C
:102AF0002CD018D3042C4FD03BD3052C5FD071E0E1
:102B0000DFF82802006850F48060DFF820120860C7
:102B10004FF440710F20FFF76DFE4FF440710E200F
:102B2000FFF768FE5EE0DFF80402006850F4006022
:102B3000DFF8F81108604FF440714320FFF75AFEA8
:102B40004FF440714420FFF755FE4BE0DFF8DC0105
:102B5000006850F48050DFF8D41108604FF44071E1
:102B60006320FFF747FE4FF440716220FFF742FEFB
:102B700038E0DFF8B801006850F40050DFF8AC111D
:102B800008604FF440712A20FFF734FE4FF4407183
:102B90002B20FFF72FFE25E0DFF89401006850F4AA
:102BA0008060DFF88C1108604FF440714E20FFF711
:102BB00021FE4FF440714F20FFF71CFE12E0DFF8BA
:102BC0007001006850F40060DFF8641108604FF491
:102BD00040718920FFF70EFE4FF440718820FFF707
:102BE00009FEFFE7DFF84C0164B250F82400C0781A
:102BF00010F0F300DFF83C1164B251F82410C870F3
:102C00004C4864B250F8240080784A4964B251F8C4
:102C10002410887064B2002C02D064B2012C06D15A
:102C2000454800684FF47A714843814605E04348BF
:102C300000684FF47A71484381462801B9FBF0F0EF
:102C40000600B6B2B6F5005F02DB41F6FF70060083
:102C5000B9FBF5F0B6B2B0EB06100700BFB2202FFB
:102C600004DB40F203113648FFF71CFE314864B222
:102C700050F82400007810F0E0008046C6F30420ED
:102C800050EA08002B4964B251F824100870294812
:102C900064B250F824004670264864B250F824000C
:102CA000807A10F0E000804617F01F0050EA08001C
:102CB000204964B251F8241088721E4864B250F85A
:102CC0002400007C50F088001A4964B251F82410A6
:102CD0000874184864B250F82400C07850F00C0012
:102CE000144964B251F82410C870BDE8F183114A48
:102CF00040B252F8202012791206F8D50D4A40B29F
:102D000052F82020D171704770B504000D001600F4
:102D10003000461E002808D095F9001049B2200066
:102D200040B2FFF7E4FF6D1CF2E770BD3480044051
:102D300028800440180CFF1F740EFF1F7C0EFF1F1D
:102D40007C5E000070B504000D0016004FF4807129
:102D50002000C0B2FFF74EFD6DB2002D11D16048CA
:102D6000E4B2611150F821005D49E4B2621151F8FA
:102D700022104969012214F01F039A4091434161D6
:102D800036E05748E4B2611150F821005449E4B2EA
:102D9000621151F822104969012214F01F039A4070
:102DA00011434161F6B2002E11D14D48E4B26111D8
:102DB00050F821000068012114F01F02914088435F
:102DC0004749E4B2621151F82210086010E044480B
:102DD000E4B2611150F821000068012114F01F02D3
:102DE000914008433E49E4B2621151F82210086054
:102DF00070BD38B504000D003948E4B2611150F8D7
:102E00002100406914F01F010200CA40D00703D41A
:102E100063213448FFF746FDEDB2002D11D1304853
:102E2000E4B2611150F821000068012114F01F0282
:102E3000914088432A49E4B2621151F82210086097
:102E400010E02748E4B2611150F821000068012128
:102E500014F01F02914008432149E4B2621151F875
:102E60002210086031BD10B504001D48E4B26111A4
:102E700050F82100406914F01F010200CA40D00739
:102E800003D47B211748FFF70DFD1548E4B261110B
:102E900050F82100012114F01F029140C16010BDC3
:102EA00010B504000E48E4B2611150F821004069E9
:102EB00014F01F010200CA40D00703D58C21094835
:102EC000FFF7F0FC0648E4B2611150F821000069F8
:102ED00014F01F010200CA4012F0010010BD0000F2
:102EE0009C0BFF1FBC5D000081B00020ADF800000E
:102EF000BDF800000F2805DABDF80000401CADF851
:102F00000000F5E701B0704781B00020ADF8000087
:102F1000BDF800000F2805DABDF80000401CADF830
:102F20000000F5E701B0704710B500210C2000F05B
:102F300010F80021802000F00CF800200400B4F507
:102F4000FC7F05D20121002000F003F8641CF6E7A5
:102F500010BD70B504000D000020DFF8E814086013
:102F6000EDB2002D04D10020DFF8DC14086003E08E
:102F70000120DFF8D414086000200600F6B2082E05
:102F800019DA200604D50120DFF8C014086003E038
:102F90000020DFF8B81408600020DFF8B4140860DF
:102FA0006400FFF7B1FF0120DFF8A4140860FFF709
:102FB000ABFF761CE2E70120DFF88814086070BDE3
:102FC00080B5002201214F20FFF7BCFE0022012125
:102FD0004620FFF7B7FE002201213620FFF7B2FEA0
:102FE000002201213520FFF7ADFE002201214720FC
:102FF000FFF7A8FE0020DFF85C140860FFF774FFFD
:103000000120DFF8501408600020DFF83814086051
:10301000FFF76AFF0120DFF82C140860FFF764FF58
:1030200000212120FFF795FF0021C820FFF791FF25
:1030300000210620FFF78DFF00211320FFF789FFF5
:1030400000212020FFF785FFFFF76EFF00210C20F5
:10305000FFF77FFF0020DFF8EC13086001BD38B5F3
:1030600004000D00002155F04000C0B2FFF771FFD1
:10307000002154F08000C0B2FFF76BFF31BD70B586
:103080000400E4B22600B6B2202E02DBB6B27F2ED8
:1030900001DB00200600203E052016FB00F6002084
:1030A0000500EDB2052D09DA0121DFF8AC03B6B257
:1030B000305CFFF74EFF761C6D1CF2E7012100200B
:1030C000FFF747FF70BD70B504000D001600290022
:1030D000C9B22000C0B2FFF7C2FF96F90000002875
:1030E00005D03078C0B2FFF7CAFF761CF5E770BD97
:1030F00000B58FB002A80021016001A80021016085
:1031000003A8002101600DA8002101600CA8002186
:1031100001600AA80021002206C0083808A8002182
:10312000002206C0083806A80021002206C0083880
:1031300004A80021002206C0083800A80021016070
:10314000C6480078642190FBF1F030308DF808001B
:10315000C2480078642190FBF1F201FB12000A21C1
:1031600090FBF1F030308DF80900BC4800780A215E
:1031700090FBF1F201FB120030308DF80A00B848E4
:103180000078642190FBF1F030308DF80400B448F1
:103190000078642190FBF1F201FB12000A2190FB00
:1031A000F1F030308DF80500AD4800780A2190FB31
:1031B000F1F201FB120030308DF80600A948B0F999
:1031C0000000642190FBF1F030308DF80C00A54830
:1031D000B0F90000642190FBF1F201FB12000A211A
:1031E00090FBF1F030308DF80D009E48B0F90000F2
:1031F0000A2190FBF1F201FB120030308DF80E0035
:10320000994800884FF47A7190FBF1F201FB1200AB
:10321000642190FBF1F030308DF82800924800884E
:10322000642190FBF1F201FB12000A2190FBF1F006
:1032300030308DF829008C4800880A2190FBF1F28B
:1032400001FB120030308DF82A00884800884FF4C6
:103250007A7190FBF1F030308DF8200083480088BF
:103260004FF47A7190FBF1F201FB1200642190FBA4
:10327000F1F030308DF821007C480088642190FB0B
:10328000F1F201FB12000A2190FBF1F030308DF8D1
:103290002200764800880A2190FBF1F201FB12001F
:1032A00030308DF82300724800884FF47A7190FB1B
:1032B000F1F030308DF818006D4800884FF47A71C5
:1032C00090FBF1F201FB1200642190FBF1F0303031
:1032D0008DF8190066480088642190FBF1F201FB2B
:1032E00012000A2190FBF1F030308DF81A0060488E
:1032F00000880A2190FBF1F201FB120030308DF8BA
:103300001B005C4800884FF47A7190FBF1F030307C
:103310008DF81000574800884FF47A7190FBF1F255
:1033200001FB1200642190FBF1F030308DF81100A8
:1033300050480088642190FBF1F201FB12000A2141
:1033400090FBF1F030308DF812004A4800880A21D5
:1033500090FBF1F201FB120030308DF813003020A9
:103360008DF80000444800784FF47A7190FBF1F238
:1033700001FB1200642190FBF1F030308DF8010068
:103380003D480078642190FBF1F201FB12000A2114
:1033900090FBF1F030308DF80200384A0021002017
:1033A000FFF791FE02AA00211920FFF78CFE344A94
:1033B00000212D20FFF787FE01AA00213C20FFF706
:1033C00082FE304A01210020FFF77DFE0AAA01217A
:1033D0001920FFF778FE08AA01212D20FFF773FEC0
:1033E000294A02210020FFF76EFE06AA02213220A0
:1033F000FFF769FE254A03210020FFF764FE04AAB7
:1034000003213220FFF75FFE214A04210020FFF74D
:103410005AFE00AA04213220FFF755FE1D4800780D
:10342000400605D51C4A05210020FFF74CFE04E0AC
:1034300003A205210020FFF746FE0FB000BD0000EB
:103440004F4B00001810FE431C10FE435808FE436B
:103450005408FE433C10FE4304520000F30EFF1FCD
:103460006904FF1F5404FF1F1804FF1F1C04FF1FE3
:10347000E80EFF1FEA0EFF1F6804FF1FC85F000071
:10348000D05F0000D85F0000E05F0000E85F000050
:10349000F05F00008404FF1FF85F00002DE9F84F83
:1034A00000240025002600F098FADFF83C14DFF82D
:1034B0003C24127821F8120000F09CFA002000F061
:1034C000B8FBDFF82C14DFF82424127821F812005E
:1034D000002000F0BCFB00200600F6B2052E0DDA3D
:1034E000DFF80404F6B230F816000419DFF800041F
:1034F000F6B230F816004519761CEEE724B2052026
:1035000094FBF0F0DFF8EC1308802DB2052095FB5A
:10351000F0F0DFF8E4130880DFF8D0030078401CF7
:10352000DFF8C8130870DFF8C4030078052803DB50
:103530000020DFF8B8130870DFF8B803B0F9000016
:10354000002807D5DFF8AC03B0F900004042DFF8EF
:10355000A4130880DFF8A003B0F90000002807D505
:10356000DFF89403B0F900004042DFF88C130880C4
:10357000DFF888030078002840F09B81DFF88003A3
:10358000008800F093FBDFF87C1300F09FFB07003E
:103590003800002100F0DCFB01D297F00047380032
:1035A000DFF8641300F0D4FB03D25FF07E50824654
:1035B00011E0380000F0DEFBDFF85023DFF8503375
:1035C000FDF772FEDFF84C23DFF84C33FEF786F987
:1035D00000F0F8FB8246DFF82803008840F2FB5138
:1035E00088422FDBC648008840F25F61884229DAB2
:1035F000DFF82803008800F059FB0090C0480088DD
:10360000A0F2D25000F048FBC54900F023FC0100B5
:103610005FF07E5000F09CFC009900F00DFD5146DB
:1036200000F00AFD00F074FDBE490880BB48008828
:1036300000F03CFB514600F0FFFC00F069FDBA4988
:1036400008803FE0AE48008840F2AA5188422FDA55
:10365000AB48008840F24651884229DBAF480088D9
:1036600000F024FB009040F2D250A5490988401A8E
:1036700000F012FBAA4900F0EDFB01005FF07E5064
:1036800000F066FC009900F0D7FC514600F0D4FC35
:1036900000F03EFDA4490880A048008800F006FB29
:1036A000514600F0C9FC00F033FD9E49088009E056
:1036B0009A48B0F900009C4908809848B0F9000089
:1036C000984908809848B0F90000C92802DBC82052
:1036D000954908809348B0F90000C92802DBC8204A
:1036E0009049088091480088914908808D48008859
:1036F00080490988401A8D4908808E4800888B4986
:10370000098808188B4908808B48B0F90000874960
:10371000B1F9001010FB01F00A2190FBF1F0814695
:103720008648B0F900008349B1F9001010FB01F0A0
:103730000A2190FBF1F080468148B0F900007B49F6
:10374000B1F900107A4AB2F90020891A48430A21D7
:1037500090FBF1F0834618EB09001BEB0000794960
:1037600008607448B0F9000041F28931884203DBF7
:1037700041F288306F4908806E48B0F90000724904
:10378000884202DA70486B49088041F289308145ED
:1037900002DB41F28830814640F6B930804502DBD9
:1037A00040F6B830804667480068B0F5FA5F03DD40
:1037B0004FF4FA506349086062480068B0F57A7FB8
:1037C00003DA4FF47A705F49086060480088604906
:1037D00008805548008848490988401A5B49088094
:1037E0005C4800885949098808185A490880524895
:1037F000B0F900005549B1F9001010FB01F00A21A1
:1038000090FBF1F081464D48B0F900005149B1F903
:10381000001010FB01F00A2190FBF1F080464848AF
:10382000B0F900004949B1F90010494AB2F9002045
:10383000891A48430A2190FBF1F083464548B0F9C4
:10384000000041F28931884203DB41F2883041496E
:1038500008804048B0F900003B49884202DA3A4803
:103860003C49088041F28930814502DB41F28830D1
:10387000814640F6B930804502DB40F6B8308046DC
:1038800018EB09001BEB0000334908603248006860
:10389000B0F5FA5F03DD4FF4FA502F4908602E4867
:1038A0000068B0F57A7F10DA4FF47A702A49086020
:1038B0000BE0002023490860002027490860002011
:1038C0002449088000201B490880234802680521FC
:1038D000002000F08BFD1B4802680621002000F04C
:1038E00085FDBDE8F18F00BFDC0CFF1FF00EFF1F50
:1038F000040DFF1FD00EFF1FD20EFF1F6804FF1F15
:10390000E60EFF1F0040BAC40000A042C7BAB88D3F
:1039100006F066BFEE7C3F355EBAF13F1804FF1F2C
:103920000000FA43D40EFF1FD60EFF1FDA0EFF1F52
:10393000DE0EFF1FE20EFF1F2404FF1F2604FF1FE1
:103940002804FF1F1C04FF1F78ECFFFFDC0EFF1F85
:10395000E00EFF1FE40EFF1F2004FF1F70B50400E0
:103960000D0016002A48006850F001002849086040
:1039700064B2012C05D14FF4C0611320FEF73AFF69
:1039800012E064B2022C05D14FF480614520FEF7AD
:1039900031FF09E064B2012C06D064B2022C03D0DE
:1039A00032211C48FEF77EFF00201B4908600520DD
:1039B0001A490860ADB21A48056076B2012E01D1ED
:1039C000082000E0002064B2210111F0300108431A
:1039D00050F043001049086070BD0F49096809069E
:1039E00003D54FF6FF71080002E00E490968080090
:1039F00080B27047084800684008400006490860E7
:103A00000548006850F00100034908607047000055
:103A100038800440EC5D00000000044004000440D5
:103A2000080004400C000440012110F01F029140E6
:103A30008D4A40B2430942F8231070472DE9F843FC
:103A400005000E00170098465FF000095FFA89F93B
:103A5000B9F1000F01D101240EE05FFA89F9B9F143
:103A6000010F01D1022407E05FFA89F9B9F1020FD1
:103A700001D1042400E01024B7F5004F02D347F62B
:103A8000FF70070079486DB240F8257078480068EB
:103A900050F00200764908607648006850F0020055
:103AA00074490860744875496DB26A015050724893
:103AB0006DB2690101F1804111F5104108610020EA
:103AC0006DB2690101F1804111F51041888000203B
:103AD0006DB2690101F1804111F5104188825FFAF0
:103AE00089F95FEA092010F4E0605FFA89F919F0BA
:103AF000070108436DB2690101F1804111F51041E0
:103B0000C88038004004400C6DB2690101F1804169
:103B100011F51041C8823800C005C00D6DB26901B1
:103B200001F1804111F51041C8835548006830F01B
:103B3000800053490860E4B26DB2680100F1804032
:103B400010F51040846078426DB2690101F1804146
:103B500011F51041C86000206DB2690101F180418A
:103B600011F5104188610A206DB2690101F18041AF
:103B700011F510418883F6B27009313050F08000A1
:103B800040496DB26854404800684FF40071F6B285
:103B90007209914008433C4908603C48F6B27111F3
:103BA00050F821003949F6B2721151F822104969D2
:103BB000012216F01F039A40914341613448F6B246
:103BC000711150F82100F6B216F01F015FFA88F863
:103BD00018F003025FFA88F85FEA9813DBB253EA41
:103BE000024252F4807240F82120F6B2002E01D039
:103BF000012000E000202549F6B2721151F8221090
:103C0000224AF6B2731152F823205269012313FAA3
:103C100000F032EA000048611E4800680121A94016
:103C200008431C490860280040B2FFF7FDFEBDE8CC
:103C3000F18301000D4849B250F8210049B24A0110
:103C400002F1804212F51042D28A801A7047074969
:103C500040B251F8201040B2420102F1804212F508
:103C60001042D1827047000000E100E02C0EFF1FDF
:103C7000408004403C8004400C0004400090004020
:103C80000080004000100240388004406C04FF1F98
:103C9000F80BFF1F0C800040002840F10980F4461B
:103CA000404200F005F850F000406047002800BF97
:103CB0000AD0B0FA80F18840D1F19D01C905020611
:103CC00072F1004241EB10207047000090EA010FB2
:103CD00044BF81F0004100F043B900BF421A3CBF2D
:103CE000801A89184FF0004CC0F3C752FF2A24D025
:103CF000C1F3C75313B3D21AD2F1190327DD4CEA2B
:103D000001214CFA03F321EA0303D140C20D4CEA2E
:103D10000020401834BF20EA0C004CEA5000D205C5
:103D200053EA006373EB0C0C52EB1020420012F1CB
:103D3000807F38BF7047C00DC0057047490212BF71
:103D40009A4200EB5120F8E7D2F11703D9D570471A
:103D50004FF0807C1CEB400F94BF1CEB410F05E043
:103D600040EA010C5FEA4C0C01D28842704718BF50
:103D7000814270475FF0FF0C1CEAD05114BF6145CF
:103D800006E0C110400721F0E04101F160517047A9
:103D900079B900F0004100020AD0B0FA80FC00FAC4
:103DA0000CF001F16051A1EB0C5101EBD021400569
:103DB000704741020CBF40F4E0016FF000010020A9
:103DC000704700004FEAF17CBCF1E04C2CBFBCF521
:103DD000001F11E05FEA4C0C34BFBCF17F5F2EE0A6
:103DE0005FEA9C0C4FEA0C1C4FEA3C0CC10071F1DD
:103DF00000414CEB50707047C90241EA5051C0027B
:103E000018BF41F0010141F000414FEA6C50C0F190
:103E10000900212810D240EACC7CCCF1200C11FA08
:103E20000CF070F10040CCF1200C21FA0CF00CF0F9
:103E3000004C40EB0C0070474FEACC7070474900D3
:103E400011F5001F04D84FEACC10FF30C0057047B1
:103E5000C817704710B5FF2313EAD0541DBF13EAEB
:103E6000D1529C429A4239E0A41ADA0780EA01034F
:103E7000134042EA012142EA0020421A3CBF641E7C
:103E800001EB4202090AB2FBF1FE01FB1E22120203
:103E9000B2FBF1F001FB10226EF30F201202B2FB15
:103EA000F1FE4EEA00207F3406DDFE2C24DA53EAD0
:103EB000500050EBC45010BDD4F1020401FB1E228F
:103EC00040F08071192C1DDC21FA04F0C4F12004AB
:103ED000A140114371F10042584110BD9C421ABFEC
:103EE00003EAD1529A420FE080EA010E0EF000433D
:103EF000400004D0490016D143F0FF4010BD4900F6
:103F000008BFD343180010BD9C4205D1D21AF7D088
:103F100001F00041484010BD4A0212BF0846484027
:103F200000F0004010BD4AB90902B1FA81F2914097
:103F300044B1A418C00140F000409EE7C90141F01F
:103F4000004152420002B0FA80F4A040141B94E7F2
:103F500090EA010F44BF81F00041FFF7BFBE00BFF0
:103F6000431A4FF000423EBF5340C01AC91800BF69
:103F7000D3095FEAD05C13EB400F34BFB3EB410FC2
:103F800040E07CEBD1530CD342EA012122D8D1EBA3
:103F9000402009D3400A28BF5FEA500140EBCC50D3
:103FA0007047401A15D04002B0FA80F2521C90407F
:103FB000400A4FEA3C23B3EB026384BF00EB73007B
:103FC00007E040F400001A16DB07C2F10102D040FE
:103FD00018437047182BFCDC31FA03F202FA03F3A2
:103FE000591A38BF42F00102D2EB40203CBF4000DA
:103FF000ACF1010C5FEACC5CC20572F100414CEB04
:104000005020704713EB400F0FD24B0009D0ACEBA0
:10401000D153022B03DB4902172BDDDD704791439F
:10402000401A4300D5D10020704713EB410FD0D385
:104030006FF0000070470000FF2212EAD05C1DBF45
:1040400012EAD153944593422BE09C44D30780EA73
:1040500001021A4043EA002043EA0121A1FB00309B
:10406000410038BF40007CF17F010BDBFE294ADABA
:104070005B0842EAC15153EA006373F1004C51EB13
:1040800010207047D1F1080CDCF120012FDB5B0818
:1040900010FA01F10B4373F1004120FA0CF050418A
:1040A000704794451CBF02EAD153934280EA010253
:1040B00002F000421DD0400019D0490017D05BB972
:1040C000634514D00902B1FA81F39940BCEB030CAB
:1040D000C00140F00040C1E70002B0FA80FC10FAD5
:1040E0000CF0B3EB0C0CC90141F00041B6E7100035
:1040F000704740000AD0490008D010F1807F94BF7B
:1041000011F1807F02E042F0FF407047D0437047DA
:104110004100090E7F3915D4D1F11F0114D440009C
:1041200007D2C00140F00040C84048BF6FF00040D7
:104130007047C00140F00040C8404CBF4FF0004005
:10414000404270470020704700424FF0004058BF87
:10415000C043704738B504000D0064B2002C03D092
:10416000022C66D049D380E0DFF87803006850F075
:104170008070DFF8701308606DB2002D0BD0022D37
:1041800015D00ED3042D1ED017D3062D27D020D343
:10419000072D2AD02FE04FF480614120FEF72AFB43
:1041A0002AE04FF480614220FEF724FB24E04FF424
:1041B00040710520FEF71EFB1EE04FF44071062003
:1041C000FEF718FB18E04FF480616420FEF712FB45
:1041D00012E04FF480616520FEF70CFB0CE04FF419
:1041E00080616620FEF706FB06E04FF480616720E1
:1041F000FEF700FB00E038E037E0DFF8E802006897
:1042000050F00070DFF8DC1208606DB2002D02D0B3
:10421000012D06D00BE04FF440710820FEF7EAFABA
:1042200006E04FF440710920FEF7E4FA00E01CE0DC
:104230001BE0DFF8B402006850F08070DFF8A812CD
:1042400008606DB2002D02D0012D06D00BE04FF4B6
:1042500040710A20FEF7CEFA06E04FF440710B20C1
:10426000FEF7C8FA00E000E0FFE731BD2DE9F84FA6
:1042700004000D0016001F0064B2002C0DD064B2C3
:10428000012C02D064B2022C02D16DB2022D04DBEB
:10429000FC21DFF85802FEF705FB290049B2200097
:1042A00040B2FFF757FFDFF8480200684FF47A7119
:1042B000484380465FEA1840B0FBF6F08146002094
:1042C00082461FFA89F9484650FA0AF0012802DBB3
:1042D0001AF1010AF5E75FFA8AFABAF1080F05DB6D
:1042E00040F21711DFF80402FEF7DCFA404630FA1C
:1042F0000AF0B0FBF6F0814664B2002C03D0022C29
:1043000019D00CD323E01FFA89F919F1010000FB41
:1043100007F042F21071B0FBF1F0834617E01FFA8C
:1043200089F919F1010000FB07F042F21071B0FBAE
:10433000F1F083460BE01FFA89F919F1010000FB47
:1043400007F042F21071B0FBF1F08346FFE7DFF8AF
:10435000A40164B250F824006DB210EBC500DFF880
:10436000941164B251F824106DB211EBC501C96803
:1043700031F00401C160DFF87C0164B250F8240020
:104380006DB210EBC5002821C1605FFA8AFA1AF0FD
:10439000070050F00800DFF85C1164B251F82410F7
:1043A00008601FFA89F9DFF84C0164B250F8240064
:1043B000C0F808900020DFF83C1164B251F82410D6
:1043C000C864DFF8300164B250F824006DB210EB1D
:1043D000C5001FFA8BFBC0F810B00020DFF81411E5
:1043E00064B251F824104860BDE8F18F2DE9F04126
:1043F00004000D0016005FF0000864B2002C0ED01F
:1044000064B2012C02D064B2022C02D16DB2022D32
:1044100005DB4FF4A971DFF8D400FEF743FA64B26C
:10442000002C03D0022C17D00BD320E042F21170E5
:10443000864205D340F25711DFF8B000FEF732FA9A
:1044400015E042F21170864205D340F25B11DFF8AD
:104450009C00FEF727FA0AE042F21170864205D36B
:1044600040F25F11DFF88400FEF71CFAFFE7DFF887
:10447000840064B250F8240080688046B8F1000FD0
:10448000F5D064B2002C03D0022C15D00AD31DE065
:1044900018F1010000FB06F042F21071B0FBF1F0E0
:1044A000070013E018F1010000FB06F042F2107162
:1044B000B0FBF1F0070009E018F1010000FB06F085
:1044C00042F21071B0FBF1F00700FFE7DFF82400C3
:1044D00064B250F824006DB210EBC5000761BDE86E
:1044E000F08100003C800440308004408C5D00007E
:1044F0007C0EFF1F900BFF1F38B504000D0064B247
:10450000002C05D16DB2082D02DB6DB2132D0DDB31
:1045100064B2012C05D16DB2042D02DB6DB2122DF7
:1045200004DB2221DFF84C03FEF7BCF964B2002C57
:1045300003D0012C00F0828037E1DFF83C030068F3
:1045400050F00060DFF830130860DFF830030068D7
:1045500030F09000DFF8241308600020DFF81C130F
:1045600008606DB22800083801280CD9801E012887
:104570001BD9801E01282AD9801E012839D9C01EC6
:10458000012848D958E0DFF8F802006850F480604C
:10459000DFF8EC12086000206DB2A90001F1804143
:1045A00011F5942141F8200C47E0DFF8D4020068AF
:1045B00050F40070DFF8C812086000206DB2A90046
:1045C00001F1804111F5922141F80C0C35E0DFF842
:1045D000B002006850F48060DFF8A4120860002088
:1045E0006DB2A90001F1804111F5942141F8280C28
:1045F00023E0DFF88C02006850F40060DFF88012DE
:10460000086000206DB2A90001F1804111F59621EA
:1046100041F8380C11E0DFF86802006850F40050EF
:10462000DFF85C12086000206DB2A90001F1804142
:1046300011F59A21C86100E0B7E0B6E0DFF8440266
:10464000006850F00060DFF83C120860DFF82C02D0
:10465000006830F41040DFF8241208600020DFF812
:104660001C120860DFF82002006850F01000DFF82C
:10467000181208606DB22800001F11D0401E20D013
:10468000401E2FD0401E3ED0401E01284CD9801E17
:1046900003285BD9001F01286AD9C01E78D083E0A7
:1046A000DFF8DC01006850F40060DFF8D411086026
:1046B00000206DB2A90001F1804111F59621086139
:1046C00072E0DFF8BC01006850F40060DFF8B01160
:1046D000086000206DB2A90001F1804111F596211A
:1046E000086161E0DFF89801006850F40060DFF8CD
:1046F0009011086000206DB2A90001F1804111F510
:104700009621086150E0DFF87801006850F40060FD
:10471000DFF86C11086000206DB2A90001F1804142
:1047200011F5962108613FE0DFF85401006850F46C
:104730008060DFF84C11086000206DB2A90001F123
:10474000804111F5942141F8200C2DE0DFF8300173
:10475000006850F48060DFF82811086000206DB216
:10476000A90001F1804111F5942141F8180C1BE0DA
:104770004348006850F480604149086000206DB2F1
:10478000A90001F1804111F5942141F8100C0BE0D2
:104790003B48006850F400703949086000203B49EC
:1047A0006DB241F82500FFE7FFE731BDF8B5040021
:1047B0000D001600002764B2002C05D16DB2082D43
:1047C00002DB6DB2132D0CDB64B2012C05D16DB28E
:1047D000042D02DB6DB2122D03DB90212548FEF77C
:1047E00061F8320052B2290049B2200040B200F014
:1047F0001CF8274864B250F8240000680006F8D579
:10480000234864B250F8240000690700204864B2CD
:1048100050F82400006830F080001D4964B251F85F
:1048200024100860380080B2F2BD70B504000D009D
:10483000160015F01F0050F0400016490872B00035
:1048400010F00C0050F0500012490870142011496B
:10485000487041F234200F49488045F278600D4994
:1048600088800C490A4864B250F8240000F014F81B
:1048700070BD0000D85E00003C80044018800440F9
:1048800038800440308004400CB00B40009004405D
:104890001004FF1FCC0CFF1F0A7882604A78C260A8
:1048A0004A8882618A88C2618A790262CA794262D0
:1048B000CA6802650A7A02604A7A4260704700005C
:1048C000DFF800F07D0CFF1FDFF8941340B231F8E1
:1048D000201040B20128C0F2698140B2112880F254
:1048E00065810022DFF87C331A7089B2312904DA3D
:1048F0000022DFF870335A7076E089B2612904DA59
:104900000122DFF860335A706EE089B2912904DA2F
:104910000222DFF850335A7066E089B2C12904DA06
:104920000322DFF840335A705EE089B2F12904DADD
:104930000422DFF830335A7056E089B2B1F5907F27
:1049400004DC0522DFF81C335A704DE089B2B1F562
:10495000A87F04DC0622DFF80C335A7044E089B2E9
:10496000B1F5C07F04DC0722DFF8F8325A703BE073
:1049700089B2B1F5D87F04DC0822DFF8E8325A703A
:1049800032E089B2B1F5F07F03DC0922B54B5A70F1
:104990002AE089B2B1F5047F03DC0A22B14B5A70D8
:1049A00022E089B2B1F5107F03DC0B22AD4B5A70C7
:1049B0001AE089B2B1F51C7F03DC0C22A94B5A70B6
:1049C00012E089B2B1F5287F03DC0D22A54B5A70A5
:1049D0000AE089B2B1F5347F03DC0E22A14B5A7094
:1049E00002E00F229F4B5A7089B21A2903DA002283
:1049F0009C4B9A7069E089B2332903DA0122994B02
:104A00009A7062E089B24C2903DA0222954B9A70BF
:104A10005BE089B2652903DA0322924B9A7054E075
:104A200089B27E2903DA04228E4B9A704DE089B256
:104A3000972903DA05228B4B9A7046E089B2B02998
:104A400003DA0622874B9A703FE089B2C92903DA5C
:104A50000722844B9A7038E089B2E22903DA0822EF
:104A6000804B9A7031E089B2FB2903DA09227D4B31
:104A70009A702AE089B2B1F58A7F03DA0A22794B6B
:104A80009A7022E089B2B1F5967F03DC0B22754B58
:104A90009A701AE089B2B1F5A37F03DA0C22714B48
:104AA0009A7012E089B2B1F5AF7F03DC0D226D4B35
:104AB0009A700AE089B2B1F5BC7F03DA0E22694B25
:104AC0009A7002E00F22674B9A7089B21A2903DAB2
:104AD0000022644BDA7069E089B2332903DA0122DB
:104AE000604BDA7062E089B24C2903DA02225D4B36
:104AF000DA705BE089B2652903DA0322594BDA7078
:104B000054E089B27E2903DA0422564BDA704DE074
:104B100089B2972903DA0522524BDA7046E089B24E
:104B2000B02903DA06224F4BDA703FE089B2C92977
:104B300003DA07224B4BDA7038E089B2E22903DA54
:104B40000822484BDA7031E089B2FB2903DA0922E6
:104B5000444BDA702AE089B2B1F58A7F03DA0A227F
:104B6000404BDA7022E089B2B1F5967F03DC0B226C
:104B70003C4BDA701AE089B2B1F5A37F03DA0C225C
:104B8000384BDA7012E089B2B1F5AF7F03DC0D2249
:104B9000344BDA700AE089B2B1F5BC7F03DA0E2239
:104BA000304BDA7002E00F222E4BDA70704710B5EE
:104BB0000400200040B2FFF787FE2B48007810F079
:104BC000FD00294908702848007850F01000264957
:104BD0000870B8202549087025480078C006FBD425
:104BE00023480078C0F38100C0B20228F8D11D48E4
:104BF000C3781C4882781B4841781A480078FFF730
:104C00005FFE174864B210EB8400807810F01F003C
:104C100018490870124864B210EB8400C07810F094
:104C20001F0050F0400014490870114800788006B9
:104C3000FBD50F4800784006FBD50C48007810F0F3
:104C40003F000A4908700A480078C0F38100C0B2EA
:104C50000328F8D1024864B230F82400C0B210BD75
:104C6000B00BFF1FF40BFF1F014006400040064041
:104C700006400640044006400540064080B501223B
:104C800001218420FEF75EF8012201218520FEF734
:104C900059F80A210120FFF72FFC01BD80B5012240
:104CA00001218620FEF74EF8012201218720FEF720
:104CB00049F80B210120FFF71FFC01BD10B50120B1
:104CC0008449086000F066F901208349086000F01B
:104CD00061F900207F49086000F05CF900207E49FE
:104CE000086000200400E4B27F2C0FDA00F052F9D3
:104CF00000F050F901207849086000F04BF900F00D
:104D000049F9002074490860641CECE700F042F99E
:104D100000F040F901207049086000F03BF900F014
:104D200039F900206C49086010BD10B501206B49AD
:104D3000086000F02FF901206949086000F02AF9A5
:104D400000206649086000F025F9002064490860E9
:104D500000200400E4B27F2C0FDA00F01BF900F011
:104D600019F901205E49086000F014F900F012F909
:104D700000205B490860641CECE700F00BF900F0D0
:104D800009F901205649086000F004F900F002F921
:104D900000205349086010BD38B5040001204F4978
:104DA000086000F0F7F801204D49086000F0F2F8C3
:104DB00000204A49086000F0EDF800200500EDB23F
:104DC000FA2D03DA00F0E6F86D1CF8E700220B215B
:104DD0000120FFF7EBFC2070641C002040490860B4
:104DE00000200500EDB27F2D16DA00F0D3F800F0B8
:104DF000D1F801203A49086000F0CCF800F0CAF878
:104E000000220B210120FFF7D1FC2070641C002040
:104E1000334908606D1CE5E700F0BCF800F0BAF813
:104E200001202F49086000F0B5F800F0B3F8002029
:104E30002B49086031BD38B50400012025490860C0
:104E400000F0A8F801202449086000F0A3F8002031
:104E50002049086000F09EF800200500EDB2FA2D10
:104E600003DA00F097F86D1CF8E700220A21012010
:104E7000FFF79CFC2070641C00201749086000208C
:104E80000500EDB27F2D16DA00F084F800F082F80C
:104E900001201149086000F07DF800F07BF8002245
:104EA0000A210120FFF782FC2070641C00200A49BF
:104EB00008606D1CE5E700F06DF800F06BF801206C
:104EC0000549086000F066F800F064F80020024927
:104ED000086031BD1020FE431420FE431820FE431D
:104EE0001C20FE4338B50400E4B220090500EDB2F1
:104EF0000A2D06DA15F1300149B20020FDF7F7FE60
:104F000005E015F1370149B20020FDF7F0FE14F07D
:104F10000F000500EDB20A2D06DA15F1300149B295
:104F20000020FDF7E4FE05E015F1370149B200204D
:104F3000FDF7DDFE31BD70B5040000262A210020FA
:104F4000FDF7D5FE4C210020FDF7D1FE44210020C5
:104F5000FDF7CDFE0020FFF7C5FF0020FFF7C2FFE1
:104F60000020FFF7BFFF0020FFF7BCFF0020050077
:104F7000EDB2802D05DA2078FFF7B4FF641C6D1CBC
:104F8000F6E73000C0B2FFF7ADFF23210020FDF7A8
:104F9000AEFE70BD81B000208DF800009DF80000CD
:104FA000002807D100BF00BF9DF80000401C8DF80D
:104FB0000000F3E701B070470021884AB2F90020F1
:104FC000100000B21C282BDB00B2652828DA020092
:104FD0001100C9B27C290FDAC9B2814A1180814A15
:104FE000C9B28A5C26327F4BC9B2CB1813F8043C95
:104FF0009A4201DB491CECE702001100C9B2052905
:1050000044DBC9B2784A1180764AC9B28A5C26323A
:10501000744BC9B2CB181B799A4237DB491EEDE7B6
:1050200000B21C2818DA09221100C9B27C290FDA53
:10503000C9B26B4A11806B4AC9B28A5C2632694B8D
:10504000C9B2CB1813F8043C9A4201DB491CECE7C7
:105050000522654B1A8019E000B2652816DB77221D
:105060001100C9B205290EDBC9B25F4A11805D4A41
:10507000C9B28A5C26325B4BC9B2CB181B799A4203
:1050800001DB491EEDE77B22554B1A80544AB2F9E9
:1050900000207B2A04D1544AB2F90020052A10D0FE
:1050A0000022524B1A700022514B1A704C4AB2F92E
:1050B00000204D4BB3F900309A185210474B1A801C
:1050C0004EE00122494B1A7032221100C9B27C29EC
:1050D0000FDAC9B2424A5180464AC9B28A5C2632C6
:1050E000444BC9B2CB1813F8043C9A4201DB491C6B
:1050F000ECE750221100C9B205290EDBC9B23A4AC9
:1051000051803C4AC9B28A5C26323A4BC9B2CB18AC
:105110001B799A4201DB491EEDE7314AB2F90220C0
:105120007B2A09D1304AB2F90220052A04D1304A3B
:105130001278521C2E4B1A702D4A1278152A02DB57
:1051400001222D4B1A70264AB2F90220264BB3F9E0
:1051500002309A185210214B1A8040221F4B1A809D
:10516000704710B4002300242200D2B2C0B28242A1
:1051700005D20C7853FA84F3491C521CF5E7C0B2EF
:10518000B3FBF0F0C0B210BC704780B51549802069
:10519000FFF7E7FF19490870184800788D2804DBED
:1051A00017480078401E1649087014480078642893
:1051B00004DA13480078401C114908701048007840
:1051C0000A2802DB09200E4908700D4800780328E0
:1051D00002DA03200A49087001BD00005404FF1FD1
:1051E0004004FF1F2C0DFF1F2C04FF1FF10EFF1F9B
:1051F000F20EFF1FAC0DFF1F6804FF1FF30EFF1F11
:105200006904FF1F000000000000002F00000007DD
:10521000000700147F147F14242A7F2A1262640876
:10522000132336495522500005030000001C22417B
:10523000000041221C0014083E081408083E08081B
:105240000000A06000080808080800606000002056
:10525000100804023E5149453E00427F4000426131
:105260005149462141454B311814127F10274545BD
:1052700045393C4A494930017109050336494949D4
:1052800036064949291E0036360000005636000011
:1052900008142241001414141414004122140802AA
:1052A00001510906324959513E7C1211127C7F4945
:1052B0004949363E414141227F4141221C7F4949B3
:1052C00049417F090909013E4149497A7F08080897
:1052D0007F00417F41002040413F017F081422416F
:1052E0007F404040407F020C027F7F0408107F3ED9
:1052F0004141413E7F090909063E4151215E7F0936
:10530000192946464949493101017F01013F404081
:10531000403F1F2040201F3F4038403F6314081487
:105320006307087008076151494543007F41410008
:10533000552A552A550041417F00040201020440CC
:1053400040404040000102040020545454787F48FB
:105350004444383844444420384444487F38545402
:105360005418087E09010218A4A4A47C7F08040430
:105370007800447D40004080847D007F10284400F8
:1053800000417F40007C041804787C0804047838CD
:1053900044444438FC2424241818242418FC7C0891
:1053A0000404084854545420043F4440203C4040E6
:1053B000207C1C2040201C3C4030403C44281028CD
:1053C000441CA0A0A07C4464544C44000836410016
:1053D00000007F00000041360800081008040800A3
:1053E00080B5DFF82C01006850F00100DFF82011D3
:1053F0000860DFF820010078401CDFF81811087001
:10540000DFF810010078DFF810110978D1F10A01F6
:10541000884208D1FFF752FCDFF80001007800282D
:1054200001D0FFF782FCDFF8EC000078072822D1DA
:10543000002209210120FFF7B9F9DFF8E410088004
:1054400000220C210020FFF7B1F9DFF8D810088006
:10545000DFF8CC00008865280DDBDFF8C800008885
:10546000652808DBDFF8C0000088292803DB01205D
:10547000DFF8B8100870DFF89C000078092801D127
:10548000FEF70CF8DFF88C0000780A283EDB0020DD
:10549000DFF8801008700120DFF8941008700121F7
:1054A0001A20FDF7A6FC01211920FDF7A2FCDFF868
:1054B0008400FFF7C0FCFFF768FEFFF77DFDDFF813
:1054C0005C000078002807D0DFF86C00FFF764FC70
:1054D00000211A20FDF78DFC00F034F8DFF85C00A5
:1054E0000078401CDFF854100870DFF85000007896
:1054F0000A2807DB0120DFF8481008700020DFF8D9
:105500003C10087000211920FDF773FC01BD00005C
:105510001C710340F40EFF1F6904FF1FF10EFF1FF3
:10552000E80EFF1FEA0EFF1FEC0EFF1F6804FF1FAF
:10553000F50EFF1F2C0DFF1FAC0DFF1FF60EFF1FFA
:10554000F70EFF1F70B5214D214E2248B0F9000023
:105550004038FEF7A1FB040028002100FEF76CFD97
:105560002100FEF769FD3100FEF7B0FB1A49086023
:10557000194800682100FEF75FFD01001748FEF79B
:10558000E7FC174908601748046015480068FEF7F3
:10559000BFFD154908801448008840F25F618842C9
:1055A00003DB40F25E60104908800F48008840F23B
:1055B0004651884203DA40F246500B4908800A48B7
:1055C000028800210220FEF711FF70BD8FC2753CDA
:1055D0006666A6405404FF1F8004FF1F0040BA44C3
:1055E0006C0EFF1F700EFF1FE60EFF1F30B583B05D
:1055F00004000D008DF804408DF805500220009045
:1056000001AB01AA01210120FCF753FF9DF8040022
:105610003EBD31B584B00C00150003950120029009
:10562000002001900094002304AA01210120FCF72E
:10563000C8FF9DF8100005B030BD10B50400404B08
:10564000002201210120FCF7F5FD002201218C2020
:10565000FDF778FB002200218B20FDF773FB002073
:1056600038490860052238492A20FFF7D2FF052271
:1056700036493020FFF7CDFF01212120FFF7B6FF8B
:1056800001212220FFF7B2FF1A212420FFF7AEFFED
:1056900028212520FFF7AAFF0F212620FFF7A6FFCC
:1056A000E4B2012C08D120213120FFF79FFF0F2108
:1056B0002020FFF79BFF3FE0E4B2022C08D120211D
:1056C0003120FFF793FF0E212020FFF78FFF33E0FB
:1056D000E4B2032C18D1FF21E120FFF787FFFF215F
:1056E000E220FFF783FF0F212020FFF77FFF7321C8
:1056F0005020FFF77BFF01213C20FFF777FF0621B9
:105700003D20FFF773FF17E00E212020FFF76EFF0B
:10571000FF21E120FFF76AFFFF21E220FFF766FF8C
:1057200073215020FFF762FF01213C20FFF75EFF4D
:1057300006213D20FFF75AFF01200249086010BDF5
:1057400020BCBE003020FE43086000000060000066
:1057500070B588B01B2400A8202100F09BF800261B
:1057600044480088401C43490880AA208DF8000066
:10577000AA208DF8010002208DF80200601F8DF82C
:1057800003003C48008880B2000A8DF804003948C4
:1057900000888DF805003848B0F9000000128DF837
:1057A0000600354800888DF807003448B0F900003D
:1057B00000128DF80800314800888DF80900304843
:1057C000B0F9000000128DF80A002D4800888DF80D
:1057D0000B002C48B0F9000000128DF80C0029488D
:1057E00000888DF80D002848B0F9000000128DF8EF
:1057F0000E00254800888DF80F002448B0F90000FD
:1058000000128DF81000214800888DF81100204802
:10581000006800128DF812001D4800688DF8130012
:1058200000208DF8140000208DF8150000208DF860
:10583000160000208DF8170000208DF818000020B9
:105840008DF8190000200500EDB2E4B2601E85421B
:1058500005DA00A8EDB2285C86196D1CF4E78DF816
:105860001A60E4B2220000A90020FDF74DFA08B04A
:1058700070BD0000EE0EFF1FD00EFF1FD20EFF1FE7
:105880002C04FF1F4004FF1F5404FF1FD80EFF1FEE
:105890001C04FF1F002200F001B8000000B500BF8B
:1058A000130096469446103928BFA0E80C50FAD849
:1058B0005FEA417C28BF0CC048BF40F8042BC907F1
:1058C00028BF20F8022B48BF00F8012B00BD0000C4
:1058D00080B500F08DF800F023F800F003F800F038
:1058E000A7F8FEE780B50320FFF761F932490860A9
:1058F000314800684FF47A714843304908602F48B6
:1059000000682F490968C1F30361491CB0FBF1F03D
:105910002C4908605FF4E1310320FDF7E1F801BD97
:105920002DE9F8432848294988420DD000208046B7
:10593000B8F5826F08D2254850F82800224941F86E
:10594000280018F10108F3E71F4800F0C3F82048C9
:1059500007002048060020480400A01B804640465F
:10596000B0F10108002804D030783870761C7F1C14
:10597000F5E71A4881461A480500B5EB090080464C
:105980004046B0F10108002805D0002089F8000049
:1059900019F10109F4E713481349144A531A9846B8
:1059A0004346B3F10108002B04D00B780370491C67
:1059B000401CF5E7BDE8F183780EFF1F740EFF1F52
:1059C000448004407C0EFF1F0000FF1F0000000009
:1059D0001004FF1FC819000034220000CC0CFF1F68
:1059E000F80EFF1F7C0CFF1FC05C0000105D000064
:1059F00080B500F008F80C4800884FF6FE710840AA
:105A00000949088001BDEFF3118072B64CF22051B4
:105A1000064A11804DF62811044A1180C0B20028B0
:105A200000D162B670470000002005400E200540FE
:105A300080B572B600F080F862B620480078002881
:105A400007D000201D490870FFF782FE1C48FFF7B1
:105A500072FA1C48007800281BD0002019490870F1
:105A600019480088401C18490880174800881F28DA
:105A700002DA012015490870134800881E2806DB49
:105A800011480088292802DA002010490870FDF723
:105A90002FFB002000F0F0F8002804D10C4800880B
:105AA000401D0B490880012000F0E6F80028C4D111
:105AB00007480088401F06490880BEE7F50EFF1F13
:105AC0002C0DFF1FF70EFF1FEC0EFF1F6804FF1FBA
:105AD0001804FF1F10B504004FF4007094FBF0F1A0
:105AE00001FB1041002903D01E210B48FCF7DAFE10
:105AF0000A48046010BD38B504000D00074800686E
:105B00000749884203D030210348FCF7CBFE044804
:105B100064B240F8245031BDAC5E000008ED00E0F6
:105B20000000FF1F012110F01F029140344A40B2D3
:105B3000430942F82310704780B55FF4E13100203B
:105B4000FCF7CEFF0023642200210220FEF78EFB2B
:105B5000002341F2883204210020FEF787FB002356
:105B600041F2883205210020FEF780FB002341F23C
:105B7000883206210020FEF779FB002341F28832AB
:105B800007210020FEF772FB002242F21071012073
:105B9000FDF7E4FEC1234FF6FF7208210020FDF758
:105BA0004DFF002201211920FDF7CCF80022012130
:105BB0001A20FDF7C7F8134801680120FCF7FAFE28
:105BC00011495520FFF797FF4520FFF7ABFFFFF77F
:105BD00055F8FFF763F809210120FEF78DFC0C2131
:105BE0000020FEF789FC002000F010F8012000F0F2
:105BF0000DF8FDF7E5F90120FFF71FFD01BD0000DD
:105C000000E100E07C0EFF1FE153000010B504002E
:105C100064B2082C0DDA00220021274864B2205C0F
:105C2000FDF790F80321244864B2205CFCF704FEE1
:105C300014E0082004002000441E40B200280DD0CB
:105C4000002200211C4864B2205CFDF77BF8032190
:105C5000194864B2205CFCF7EFFDECE710BD10B50D
:105C60000400154864B2205CFDF71AF9002801D140
:105C7000002000E0012010BD10B50400200040B25B
:105C8000FFF7EDFF002815D10C4800680A2101FB41
:105C900000F10320FCF7C4FE200040B2FFF7DFFF55
:105CA000002807D1200040B2FFF7D9FF0028F9D023
:105CB000002000E0012010BD300CFF1F7C0EFF1FF4
:105CC000F0B4114E366834000F4E366856F47F0635
:105CD0000D4F3E600E0616F0706656EA0076170508
:105CE00017F470073E431F0417F470273E43074F15
:105CF0003E6000263500EDB29D4201D26D1CFAE7F0
:105D0000014E3460F0BC704700F001404480044014
:105D1000020000000400000006000000080000006F
:105D20001000000020000000400000008000000083
:105D30000001000000020000000400000008000054
:105D40000010000000200000004000000080000063
:105D50000A2A2A2A2A64656661756C745F697372FF
:105D600020656E7465726564206F6E20766563745D
:105D70006F722025642A2A2A2A2A0A0A25732049B2
:105D80006E7465727275707400000000473A5CD7DB
:105D9000C0C3E65C46534B452056332E3020BBF93A
:105DA000D3DAC9BDCDE2BFE25C436869705C4D4B9C
:105DB00036305F66746D2E6300000000473A5CD792
:105DC000C0C3E65C46534B452056332E3020BBF90A
:105DD000D3DAC9BDCDE2BFE25C436869705C4D4B6C
:105DE00036305F6770696F2E63000000473A5CD7FA
:105DF000C0C3E65C46534B452056332E3020BBF9DA
:105E0000D3DAC9BDCDE2BFE25C436869705C4D4B3B
:105E100036305F6C70746D722E630000473A5CD749
:105E2000C0C3E65C46534B452056332E3020BBF9A9
:105E3000D3DAC9BDCDE2BFE25C436869705C4D4B0B
:105E400036305F5049542E6300000000473A5CD75B
:105E5000C0C3E65C46534B452056332E3020BBF979
:105E6000D3DAC9BDCDE2BFE25C436869705C4D4BDB
:105E700036305F7370692E6300000000473A5CD7CC
:105E8000C0C3E65C46534B452056332E3020BBF949
